:020000040800F2
:10000000002B0020B537000871A90008A1370008AF
:10001000A1370008A1370008A13700080000000040
:10002000000000000000000000000000E9370008A8
:10003000A137000800000000DD3900088D660008C7
:10004000553A0008553A0008553A0008553A000854
:10005000553A0008553A0008553A0008553A000844
:10006000553A0008553A0008553A0008553A000834
:10007000553A0008553A0008553A0008553A000824
:10008000553A0008553A0008553A0008553A000814
:10009000553A0008553A0008553A0008553A000804
:1000A000553A0008553A0008553A0008553A0008F4
:1000B000553A0008553A0008553A0008553A0008E4
:1000C000553A0008553A0008553A0008553A0008D4
:1000D000553A0008553A0008553A0008553A0008C4
:1000E000553A0008553A0008553A0008553A0008B4
:1000F000553A0008553A0008553A0008553A0008A4
:10010000553A0008553A0008553A0008553A000893
:10011000553A0008553A0008553A0008553A000883
:10012000553A0008553A0008553A0008553A000873
:10013000553A0008553A0008553A0008553A000863
:10014000553A0008553A0008553A0008553A000853
:1001500053B94AB9002908BF00281CBF4FF0FF312E
:100160004FF0FF3000F00CB8ADF1080C6DE904CE93
:1001700000F010F8DDF804E0DDE9022304B0704778
:10018000704700BF034613F8012B002AFBD1181A51
:10019000013870472DE9F0478C468E46089E15467B
:1001A00004461946002B40F0D080724547D9B2FA78
:1001B00082F74FB1C7F120030EFA07FC20FA03F3D0
:1001C000BD4043EA0C0CBC404FEA154EA8B2BCFB44
:1001D000FEF8230C0EFB18CC08FB00F943EA0C4395
:1001E000994528D9EB1808F1FF3204D2994502D974
:1001F000A8F102022B44A3EB0903A4B2B3FBFEFC5B
:100200000EFB1C330CFB00F044EA0344A04214D95B
:100210002C190CF1FF3304D2A04202D9ACF1020335
:100220002C44241A43EA02401EB1FC4000233460EF
:100230007360BDE8F0874246DDE76346F1E7002AD8
:1002400079D0B2FA82F3002B3FD01946C1F12003D6
:1002500002FA01F52EFA03F20EFA01FE20FA03F378
:1002600043EA0E034FEA154E00FA01F4B2FBFEFC1E
:10027000AFB20EFB1C201A0C0CFB07F842EA00423E
:1002800090455AD9AA180CF1FF3004D2904502D9F2
:10029000ACF102002A44A2EB08029BB2B2FBFEFCC6
:1002A0000EFB1C220CFB07F743EA02439F4246D990
:1002B000EB180CF1FF3204D29F4202D9ACF10202DA
:1002C0002B44DB1B42EA004202E0AEEB02030122B8
:1002D0004FEA154EAFB2B3FBFEFC200C0EFB1C33F5
:1002E0000CFB07F840EA034398452AD9EB180CF1B8
:1002F000FF3004D2984502D9ACF102002B44A3EBA5
:100300000803A4B2B3FBFEFC0EFB1C330CFB07F787
:1003100044EA0344A74216D92C190CF1FF3304D246
:10032000A74202D9ACF102032C44E41B43EA00408B
:100330000F46114678E71F2188E76046ABE7624623
:10034000BFE76046DBE76346EFE7734506D916B9BA
:10035000002108466DE7C6E9000EF9E7B3FA83F716
:1003600087B9734501D3824207D8841A6EEB030321
:1003700001209C461EB900215BE73846FAE7C6E932
:10038000004CF8E7C7F1200CBB4022FA0CF51D43E6
:1003900020FA0CF12EFA0CF30EFA07FE41EA0E01D8
:1003A0004FEA154900FA07F4B3FBF9F81FFA85FE86
:1003B00009FB18300B0C08FB0EFA43EA00439A4580
:1003C00002FA07F240D9EB1808F1FF3004D29A453F
:1003D00002D9A8F102002B44A3EB0A0389B2B3FBB4
:1003E000F9F809FB183308FB0EFE41EA03418E457C
:1003F0002CD9691808F1FF3304D28E4502D9A8F12F
:100400000203294443EA0040A0FB0298A1EB0E013D
:100410004145CE46434602D306D14C4504D2B9EB02
:10042000020E68EB05030138002EA4D0B4EB0E02D7
:1004300061EB030101FA0CFC22FA07F34CEA030317
:10044000F940C6E9003196E74046C5E74346D9E79B
:100450002DE9F04F87B00546039117461E4670B947
:100460003D483E4A3E4940F282230AF088F83D4822
:100470000AF085F840F2822138480AF077F883685C
:10048000394A93420AD2394A934207D35B6804AA95
:10049000984700280EDA07B0BDE8F08F2F4A34499C
:1004A0002D4840F282230AF06AF8324932480AF0B5
:1004B00066F8DFE7DDE9044AA7FB04B307FB0A3768
:1004C000584623A3D3E900233946FFF741FEDFF85E
:1004D000AC8002904FF0FF39D94578EB070330D359
:1004E000A6FB04B406FB0A4419A3D3E90023214662
:1004F0005846FFF72DFED94578EB0404034620D378
:10050000029A824220D3AA6817498A420BD217491D
:100510008A4208D3BDF84010009114682846DDE9EE
:100520000221A047B7E70D4A11490B4840F26E235C
:100530000AF025F80F4910480AF021F840F26E2120
:100540009AE76FF08500A6E76FF01500A3E700BFFC
:1005500000CA9A3B00000000F7C9000815CD00084A
:1005600045CD000814CA000804C10008FCC00008FA
:1005700053CD000889CE000869CB0008FFC99A3B1B
:1005800030B585B00024184B184902930322234646
:100590002046CDE9004409F0F0FD154800F082F84E
:1005A000051E0DDA134B0395CDE901430F49009465
:1005B00023460122204609F0E0FD284605B030BD63
:1005C0000D4800F0BBF9051E02DA0C4B0395EBE772
:1005D0000B4B06490094CDE90143032223462046F4
:1005E00009F0CBFD2546E8E7A2C70008C0C1000816
:1005F000D0080020C0C70008C0060020DAC70008E5
:10060000F2C7000808B5094800F01AF8084A094975
:1006100006480AF0B4F90549074800F04FF9BDE86B
:100620000840034A054904480AF0A9B9D008002047
:10063000F009002077A10008C006002079A1000879
:1006400070B54822044600210BF02BFA2046134BCC
:1006500040F8043B102200210BF023FA04F1480576
:100660000023C4E90533C4E90733C4E90933C4E905
:100670000B336363214604F15806284609F009FE4E
:100680002946304609F03AFE3246294604F1700008
:1006900009F04FFE024B1C60204670BD70C200087E
:1006A000E4090020F0B500F1B40185B005460A2345
:1006B0000822883006F004FD05F5827005F1480730
:1006C00009F0BCFA384600F069FD041E0DDA1C4B37
:1006D00002930023CDE900331A49039401221846FE
:1006E00009F05BFD204605B0F0BD05F1580616493E
:1006F0002A46384609F0D4FD14492A46304609F006
:1007000005FE304600F030FE384609F0CDFD80F0A1
:10071000010104460022C9B2304600F055FF0C4AE0
:100720000C4B0849002C18BF1346039300240A4BB6
:100730000293CDE90044234603222046D0E700BFC0
:1007400035C80008E8C10008BBA1000899A100084D
:100750002FD200082FC800084EC80008F0B589B095
:100760008B7806934B6805934B780493244B039343
:10077000244B029300270E460823CDE9007322493B
:1007800004463B460422384609F007FD7578022DE1
:100790000FD0032D1AD0F5B11C4B1B490395CDE9A1
:1007A000017300973B460222384609F0F6FC09B077
:1007B000F0BD04F1700000F077FF3246294604F1E5
:1007C000580009B0BDE8F04000F0FEBE04F1700032
:1007D00000F08CFFF1E704F158062A460621304666
:1007E00000F0F2FE04F1700000F042FF04F1480056
:1007F00009F05AFD80F001012A46C9B23046E0E70F
:100800006EC800087EC80008E8C10008AAC8000831
:100810002DE9F041DFF88C8086B0044600260027E1
:1008200004F582750022CDE90067012128460BF00E
:100830001DF9C30718D50121284600250BF012F930
:100840001949CDF8088002222B462846CDE90055EB
:1008500009F0A3FC04F1700009F073FD2A4605219C
:1008600004F1580000F0B0FE4FF47A72002304A99E
:1008700004F1880006F054FC20B904A92046FFF7D3
:100880006DFFCDE70B30CBD104F1700000F056FFC7
:100890000028C5D00022052104F1580000F094FE84
:1008A000BEE700BFD0C80008E8C1000808B5024B89
:1008B0001868FFF7ADFF00BFE409002038B5054612
:1008C000044645F8041B4FF4B472002128460BF08F
:1008D000E8F8184B63604FF48072002104F11400B3
:1008E0000BF0DFF81422002104F58A700BF0D9F820
:1008F0004022002104F594700BF0D3F8294604F54A
:10090000B67009F066FD294604F5C27009F07FFD56
:100910004622002104F5E0700BF0C3F80023C4F870
:10092000063284F80D32C4F80932034B1C602046AD
:1009300038BD00BFDCC20008E809002030B500F572
:10094000E07185B005460A23072200F5CA7006F05B
:10095000B7FB281D00F0A8FF041E0DDA114B02930F
:100960000023CDE90033104903940122184609F011
:100970002EFC204605B030BD05F5B6742A460B495D
:10098000204609F030FD204601F0A6F80024084B6F
:100990000293CDE90044044923460322204609F08E
:1009A00016FCE6E7F9C8000880C10008EFA10008BE
:1009B0000FC9000870B500238AB0CDE9083304469A
:1009C00008AB00F5C8700E4601F042F9034648B97D
:1009D000284A29490090CDE90102022209F0F7FBDB
:1009E0000AB070BDB378012B35D194F80D328DF873
:1009F00022309DF822300793099B06939DF8213001
:100A000005939DF8203004931C4B03931C4B0293D9
:100A100000250823CDE9005317492B460422284618
:100A200009F0D5FB206808A909F0CCFBA84204F521
:100A3000C27417DA134B10490095CDE901532846CB
:100A40002B46022209F0C3FB9DF82010012220460C
:100A500009F0EFFCC4E7022B04BF9DF8223084F8B4
:100A60000D32C6E7B2789DF82010204609F0D7FC79
:100A7000B6E700BF23C9000880C100083FC90008CD
:100A80004BC900087EC9000808B5024B186809F078
:100A9000BCFB00BFE8090020034B1B681BB19A6B2D
:100AA0000AB1D86B10477047EC0900202DE9F041DE
:100AB00003460A461979DB880068134370B93C483D
:100AC0003C4A3D4940F2EA3309F059FD3B4809F000
:100AD00056FD40F2EA31374809F048FD8668384A49
:100AE000964213D2374A964210D303F03002302A8E
:100AF00018D135492F4A2E4840F2F63309F03FFD10
:100B0000324809F03CFD40F2F631E4E7294A304929
:100B1000274840F2EA3309F032FD2E492E4809F009
:100B20002EFDD6E72D4A2E4C1A40A2420CD12D495B
:100B3000204A1F4840F2FA3309F021FD2A4809F003
:100B40001EFD40F2FA31C6E703F00602042A09D17D
:100B50002649184A164840F2FD3309F010FD40F2CC
:100B6000FD31B8E74468224A246801259A4305FA12
:100B700001F508BF83F44023254223F480120CD1F1
:100B80001C490C4A0A484FF4826309F0F8FC1A48E1
:100B900009F0F5FC4FF482619DE707693C68DB07CB
:100BA0004CBF2C43AC433C603368BDE8F041184770
:100BB000F7C90008B7C90008E8C9000814CA000846
:100BC000FCC00008D8C0000880CB0008B9CB0008E2
:100BD00025CA000864CB000869CB000802000300A6
:100BE00002000100F6CB000843CC000892CC0008BC
:100BF00001001000C5CC000803CD00081FB50E4948
:100C0000026C038A009300239A4208BF0A460446F6
:100C1000D0E90101FFF71CFC0023084A236403927A
:100C2000074A02920822CDE90032064904221846FA
:100C300009F00AFB04B010BD40420F008DCE000841
:100C400097CE0008D8C100082DE9F041074688B0CA
:100C500021B903689B699847002623E01C4C1D4D71
:100C60008C4242F2117328BF0C46B5FBF4F59D424D
:100C7000038A009394BF4FEA550841F28838D0E9BF
:100C8000010143462A46FFF7E3FB061E0EDA124B2C
:100C900002930023CDE90033104903960122184640
:100CA00009F0D2FA304608B0BDE8F0810C4B3D6443
:100CB00003930C4B029308220023CDE90032CDE9C7
:100CC0000558064904940422184609F0BDFAC3E702
:100CD000400D030000CA9A3BA7CE0008D8C1000807
:100CE000BACE0008CCCE000810B5012303FA01F1FA
:100CF000436804691B6819420ED12149214A2248E0
:100D000040F2B96309F03BFC204809F038FC40F29E
:100D1000B9611C4809F02AFC23681D4C194218BF10
:100D200082F001028368B2B1A34206D2194A93420B
:100D300003D3DB68BDE810401847124A1649124831
:100D400040F2895309F01BFC1449154809F017FCBF
:100D500040F28951DDE7A34204D20E4A934201D307
:100D60001B69E7E7074A0C49074840F2B65309F008
:100D700006FC0A490A4809F002FC40F2B651C8E7ED
:100D8000C5CC0008B7C90008F7C9000803CD0008A2
:100D9000FCC00008D8C0000825CA000864CB0008C1
:100DA00069CB000810B5034686B00C464069197E31
:100DB000631E5A425A41FFF797FF0A4A0A4B0B49F2
:100DC000012C08BF13460493094B0393094B02936C
:100DD00008220023CDE900321846042209F034FA33
:100DE00006B010BDFCCE000805CF0008D8C1000831
:100DF0000DCF00081ACF000810B5034686B00C4688
:100E0000C06993F820102246FFF76EFF0A4A0B4B89
:100E10000B49002C18BF134604930A4B03930A4B4B
:100E2000029308220023CDE900321846042209F07B
:100E30000BFA06B010BD00BF2CCF000834CF00085D
:100E4000D8C100083DCF000844CF000870B590F825
:100E5000443086B00446002B2FD0406A94F82830E6
:100E600001259D4043681B681D420ED12849294A2F
:100E7000294840F25C6309F082FB284809F07FFBB7
:100E800040F25C61234809F071FB8368244A0669DB
:100E9000934216D2234A934213D35B6805A998471D
:100EA00000281CD020DD204B02930023CDE9003325
:100EB0001E490222184609F0C7F90024204606B050
:100EC00070BD144A1A49144840F2045309F057FB04
:100ED0001849194809F053FB40F20451D2E732682F
:100EE000059B53402B42DED1E0690AF0ACFC04467E
:100EF0000028E2D0114B0393114B029308220023E8
:100F0000CDE9003209490422184609F09DF9D5E7D8
:100F1000C5CC0008B7C90008F7C9000803CD000810
:100F2000FCC00008D8C0000856CF0008D8C100088F
:100F300025CA000864CB000869CB000879CF0008F7
:100F400085CF0008794BF0B5051D04460FCB85B061
:100F500085E80F0076480AF076FC034658B9754AD2
:100F600075490093CDE90132012209F06DF96FF066
:100F7000120005B0F0BD714D95E8030004F11406B0
:100F800086E803006E480AF05EFC034608B96D4A25
:100F9000E6E74FF4B0113046FFF788FD00280CDA81
:100FA000694B029300231846CDE9003362490122C0
:100FB00009F04AF96FF00400DBE7D5E9020104F11A
:100FC0001C0686E803005E480AF03DFC034608B9AB
:100FD0005E4AC5E74FF4B0113046FFF767FD0028C1
:100FE00001DA5B4BDDE7D5E9040104F1240686E86C
:100FF000030053480AF027FC034608B9554AAFE7F7
:101000004FF480313046FFF751FD002801DA524B92
:10101000C7E794F82820606A012393404F4A04F1FF
:101020002C01C4E90C2370B94D484E4A4E4940F298
:101030001E7309F0A4FA4D4809F0A1FA40F21E719E
:10104000484809F093FA8368494EB34206D2494DA5
:10105000AB4203D3DB696BB9474BA2E7414A47492F
:101060003F4840F21E7309F08AFA4549454809F0A5
:1010700086FAE3E7012298470028EDDB638D606A7A
:1010800094F8281003F0400360B93548354A3649D2
:1010900040F27A3309F073FA344809F070FA40F2FA
:1010A0007A31CDE78268B24207D2AA4205D3966967
:1010B000D0F804C06EB9344B73E72A4A2F49284848
:1010C00040F27A3309F05BFA2D492E4809F057FABD
:1010D000E5E7DCF80020012505FA01F717420CD1FD
:1010E0002A49204A1E4840F2A53309F048FA284808
:1010F00009F045FA40F2A531A2E743F080634FF0D2
:10110000A072B0470028D6DB224B84F844501C6004
:101110000024214B02932046CDE900440649234692
:10112000032209F091F8204623E700BF94C200088B
:1011300010BE000899CF0008D8C1000848C20008B6
:10114000F8BC0008AECF0008C1CF0008DBCF000814
:10115000EECF000808D000081BD00008990A00084C
:10116000F7C90008B7C90008E8C9000814CA000890
:10117000FCC00008D8C0000835D0000825CA000807
:1011800064CB000869CB000852D00008C5CC000829
:1011900003CD0008EC09002076D0000830B50546E4
:1011A000006885B0E8B103689B6898470446A8B911
:1011B0002868036821461B69984728680368214608
:1011C000DB6898470123AB73074B08490094CDE9CE
:1011D000014303222346204609F046F8204605B085
:1011E00030BD6FF01504F9E7B7D00008D0C1000892
:1011F0001FB50446006803689B6998472068036828
:1012000000211B699847064A064900236360184677
:10121000CDE901320093022209F026F804B010BD96
:10122000CCD00008D0C10008F0B5837B85B005465E
:10123000DBB100240E4F0F4B0F49029308262346C3
:1012400004222046CDE90046039709F00DF8284610
:1012500009F02EF8094B08490397CDE90163009482
:1012600023460422204608F0FFFF05B0F0BD00BF72
:1012700080D30008E4D00008D0C1000802D10008E3
:1012800030B5044687B00D46D4E90001A94215D314
:101290006560036829465B699847636804930D4B52
:1012A00003930D4B029308220023CDE900320B4932
:1012B0000422184608F0D8FF07B030BDC831A94253
:1012C00028BF2946616003685B6998470A2008F0D7
:1012D000DBFFD9E714D1000827D10008D0C10008EE
:1012E0007FB5837B04460D461646002B32D0037B28
:1012F00082608B4241731DD043683BB3174B03930D
:10130000174B029308220023CDE9003218461549F5
:10131000042208F0A9FF204608F0CAFF4B2008F07D
:10132000B3FF20680368DB682946984725730520CA
:101330000AF07BFA2068036801211B699847204660
:101340003146FFF79DFF002004B070BD00680368C0
:10135000DB68EAE76FF01500F6E700BF47D1000849
:101360004BD10008D0C100081FB50023074A037104
:101370000392074A07490093CDE901321846032238
:1013800008F0ACFF05B05DF804FB00BF0AD200080E
:1013900091D10008E0C1000804289ABF024B53F81D
:1013A00020000248704700BFC0C20008A6D1000854
:1013B00070B5044686B00079FFF7EEFF0246084696
:1013C000FFF7EAFF0025134B0293CDE903200E46F9
:1013D000CDE9005510492B460322284608F07EFF30
:1013E000042E0CD12068FFF703FF0C4B0A4900952F
:1013F000CDE9015302222B46284608F06FFFA3686F
:1014000026712BB1E168304606B0BDE87040184740
:1014100006B070BDAED10008E0C10008C0D1000820
:1014200006289ABF024B53F820000248704700BFBD
:10143000A4C20008A6D100081FB591B1012916D099
:101440000846FFF7EDFF0B4B029300230390CDE915
:10145000003309490222184608F040FF05B05DF844
:1014600004FB012105B05DF804EBFFF7A1BF0421E7
:10147000F8E700BFEAD10008E0C1000802291FB563
:101480000446134611D005291FD00846FFF7C8FFB0
:101490000F4B029300230390CDE900330D49022244
:1014A000184608F01BFF04B010BD3AB192780274E0
:1014B0005A68426199780068FFF712FF02212046BE
:1014C00004B0BDE81040FFF773BF0421F8E700BF88
:1014D0000FD20008E0C1000830B5032985B00446EA
:1014E00015460FD0052919D0022919D132B39378A6
:1014F000037452684261A978006805B0BDE83040C5
:10150000FFF7EEBEFFF754FF2068FFF78DFE0121C5
:10151000204605B0BDE83040FFF74ABF0421F8E798
:101520000846FFF77DFF064B029300230390CDE9A9
:10153000003304490222184608F0D0FE05B030BD41
:1015400035D20008E0C1000804291FB512D00529D2
:1015500016D00846FFF764FF0A4B0293002303905E
:10156000CDE9003308490222184608F0B7FE05B05D
:101570005DF804FB012105B05DF804EBFFF718BF2F
:101580000421F8E75DD20008E0C1000806291FB574
:1015900005D1002105B05DF804EBFFF709BF08464F
:1015A000FFF73EFF064B029300230390CDE9003383
:1015B00004490222184608F091FE05B05DF804FBCC
:1015C00082D20008E0C1000870B5044686B00079F8
:1015D000FFF7E2FE164602460846FFF721FF214BC1
:1015E0000393214B0293CDE9042000230822CDE987
:1015F000003218460D4604221C4908F06FFE23797C
:10160000042B2CD8DFE803F0030B131B2300324616
:101610002946204606B0BDE87040FFF70DBF3246B0
:101620002946204606B0BDE87040FFF727BF324686
:101630002946204606B0BDE87040FFF74DBF324650
:101640002946204606B0BDE87040FFF77DBF324610
:101650002946204606B0BDE87040FFF797BF06B0A8
:1016600070BD00BFB2D20008BFD20008E0C10008C0
:101670001FB50023094A0361C0E902338382039244
:10168000074A02920822CDE9003206490422184690
:1016900008F03FFE05B05DF804FB00BF18D300085A
:1016A00027D30008C8C1000810B5044686B00AF068
:1016B000B5F90A220023FEF74BFD01236375084BA1
:1016C000E0600393074B029308220023CDE9003228
:1016D000049005490422184608F01BFE06B010BD10
:1016E00045D3000854D30008C8C1000810B5437D95
:1016F00086B00446D3B10AF091F90A220023FEF71E
:1017000027FDE36822690A49C01A024400232261C6
:101710006375CDE90402074A0392074A0292082240
:10172000CDE900321846042208F0F3FD06B010BDE2
:10173000C8C1000877D3000885D300087FB5067DAF
:1017400004466EB1836803930025074B0293CDE9ED
:10175000005506492B460222284608F0DAFD257579
:10176000304604B070BD00BFBBD30008C8C100083C
:1017700010B570B91448154A15494FF4077308F0AD
:10178000FEFE144808F0FBFE10484FF4077108F005
:10179000EDFE8368104A93420AD2104A934207D35F
:1017A000DC684022A4464FF47A73BDE810406047DD
:1017B000064A0B4904484FF4077308F0E0FE094954
:1017C000094808F0DCFEDFE7F7C90008EDD30008A0
:1017D00045CD000814CA00085CC1000830C10008EB
:1017E0002CD400087DDF000869CB000830B590F8E4
:1017F000645185B0002D3ED000293CD0002A3AD05B
:10180000406870B91D481E4A1E4940F2F51308F0A1
:10181000B6FE1D4808F0B3FE194840F2F51108F075
:10182000A5FE8368194CA3420ED2194CA3420BD3D8
:101830005C684FF0FF33A047041E4FF000030FDB3E
:101840001C46204605B030BD0D4A12490B4840F2F7
:10185000F51308F094FE1049104808F090FEDBE7FD
:101860000F4A10490394CDE9013200930122184632
:1018700008F079FDE5E76FF01504E2E7F7C9000825
:10188000EDD3000845CD000814CA00085CC100086B
:1018900030C100082CD400087DDF000869CB0008A7
:1018A00069D5000868C100087FB504463B48606000
:1018B00009F0C9FF034660B9394A3A490090CDE9B9
:1018C0000102012208F04FFD6FF01205284604B016
:1018D00070BD04F110036068C4F8103100264FF4A5
:1018E0008073C4E94566C4F81C61C4F8203170B93E
:1018F0002D482E4A2E4940F2E11308F040FE2D48B3
:1019000008F03DFE294840F2E11108F02FFE8368FF
:10191000294A934207D2294A934204D31B6873B9D8
:101920006FF0570510E0214A25491F4840F2E113A6
:1019300008F025FE2349244808F021FEE2E7234968
:1019400022469847051E0BDA214B02930023CDE96E
:101950000033039513490122184608F004FDB5E74A
:10196000606804F59271FFF703FF051E06DA194B54
:101970000395CDE9016300963346EBE7012384F834
:101980006431154B07490096CDE9016303223346C4
:10199000304608F0E8FC354698E700BFBCBD0008BB
:1019A0007CD5000868C10008F7C90008EDD300081D
:1019B00045CD000814CA00085CC1000830C1000809
:1019C0002CD400087DDF000869CB0008DD19000871
:1019D00092D50008AFD50008C9D500081FB50B780F
:1019E0001446052B51D8DFE803F043520311503C55
:1019F000D1E90103CA68C11804F5887000F0A4FD9C
:101A0000204604B0BDE8104008F0BDBC04F592715A
:101A100070B92448244A254940F2372308F0AFFD25
:101A2000234808F0ACFD204840F2372108F09EFD25
:101A30008368204A934208D21F4A934205D31B6908
:101A4000402204B0BDE810401847174A1B4915480A
:101A500040F2372308F093FD19491A4808F08FFD2A
:101A6000E1E704F5927104B0BDE81040FFF780BED5
:101A7000154B0393154B029308220023CDE9003246
:101A800013490422184608F06EFC04B010BD114B37
:101A900002930023CDE900330D490222184608F0D5
:101AA00062FCF2E7F7C90008EDD3000845CD000855
:101AB00014CA00085CC1000830C100082CD400081A
:101AC0007DDF000869CB0008F1D5000803D60008C7
:101AD00068C1000816D600081FB5002404730475F9
:101AE00002460068094903681B699847084B03933D
:101AF000084B02930823CDE90043074923460422FB
:101B0000204608F056FC04B010BD00BF05A4000834
:101B10002FD6000834D6000878C100087FB50446E7
:101B20000846237B2BB1012B0CD000232373237594
:101B300006E0AA2904D1012323754AF60123A381D3
:101B400004B070BD217D062905D84A1C6318D2B2A5
:101B50002275114658730729F2D1E37C552B0ED01C
:101B600000250393124B0293CDE9005511492B46F2
:101B70000222284608F01DFC25732575E0E704F1D4
:101B80000D06304608F032FC054648B90A4B0949B3
:101B90000090CDE901030222034608F00AFCEBE7BE
:101BA0006368002BC1D0A26830469847BDE700BFEC
:101BB00050D6000878C1000871D600087FB50BAB7D
:101BC00005930393064B029308220023CDE90032CC
:101BD0001846042200F02EFF07B05DF804FB00BF9A
:101BE00098D60008F0B58DB0AA269DF84850067129
:101BF00041718271C3710572044683EA0500504049
:101C0000484055276072A772CDE907350D4B039305
:101C10000D4B0293CDE9051200230822CDE90032D5
:101C2000CDE909070949049618460422FFF7C6FFC3
:101C30002146072251F8040B0368DB680DB0BDE8AC
:101C4000F0401847C5D6000898D6000888C100089B
:101C500070B5184686B000295BD0062A59D94C7851
:101C60001C708D78B1F80320691E0023032945D824
:101C7000DFE801F0021A293C022352BA437092B203
:101C8000002342608370CDE90442234A0392234A31
:101C900002920822CDE9003221490422184608F0B8
:101CA000D2FB012006B070BD003A4FF00203437032
:101CB00018BF0122002382704360CDE90442164A16
:101CC0000392184AE4E703224270134A4360837088
:101CD0000392154A049402920822CDE900320023AF
:101CE0000F490422184608F0AEFBDAE70A4A4370AF
:101CF00043608370039204940C4AECE70C4A00930F
:101D0000CDE901320023064903950222184608F066
:101D10009AFB0020C6E700BFDFD60008E5D6000822
:101D200070C1000807D7000827D7000841D700086E
:101D30005CD700082DE9F04F85B0044608F097FB0A
:101D4000B0FA80F0C0F11F0004EB8006CD00D6F899
:101D5000109005F1040A0B4606358FB2B9F1000F59
:101D60000BD1E268012181400A43E260336124F82B
:101D70000A70675305B0BDE8F08F4FEAC906043614
:101D800034F806B04FEACB0808F1060834F80830FA
:101D9000994511D00C4B02930023CDE9003318462E
:101DA0000A49012208F06DFB002383F31188BFF379
:101DB0006F8F0423184602DF24F80AB024F8059038
:101DC00024F80870A753D5E788D7000800C2000898
:101DD0002DE9FF4700EBC1030446B3F806804145F7
:101DE00002F104090CD1012303FA02F2C36823EAC9
:101DF0000203C360002340F8293004B0BDE8F08737
:101E0000B3F804A04FEACA0706374FEAC806C35B17
:101E1000994206F1040602D1835B994211D0002554
:101E20000B4B0293CDE900550A492B460122284667
:101E300008F027FB85F31188BFF36F8F0423184642
:101E400002DF44F8298024F8078024F806A0D4E7AC
:101E500088D7000800C200081FB500EBC103044684
:101E60005B88DB070A460ED408F006FB34F83030F6
:101E7000C01A814207D134F831102046511A08F0B7
:101E8000FBFA824211D00024094B0293CDE90044B1
:101E9000084923460122204608F0F3FA84F311880A
:101EA000BFF36F8F0423184602DF04B010BD00BFDC
:101EB000ACD7000800C200082DE9F043884685B081
:101EC000002900F0908004680E1F361BF50826F0EC
:101ED000070604EB0609B9F8027017F0010711D1E3
:101EE000424B0391CDE90173414900973B460122E2
:101EF000384608F0C6FA87F31188BFF36F8F0423C2
:101F0000184602DF2946204608F0B6FA34F8303089
:101F1000C01A854213D00027364B0293CDE90077D3
:101F20003349CDF80C803B460122384608F0A9FA27
:101F300087F31188BFF36F8F0423184602DFA15B7C
:101F40002046691A08F098FAA84213D000272A4BB5
:101F50000293CDE900772649CDF80C803B4601225B
:101F6000384608F08EFA87F31188BFF36F8F042389
:101F7000184602DFB9F8023023F00103A9F8023055
:101F80002946204608F078FA04EBC00307465B8830
:101F9000DA070CD401462046FFF75EFF394620469B
:101FA00008F07FFA3A462946204608F087FAA65BF1
:101FB000AE1B04EBC6035B88DB070DD4314620461D
:101FC000FFF74AFF3146204608F06BFA2A463146B1
:101FD000204608F073FA35462946204605B0BDE88C
:101FE000F043FFF7A7BE05B0BDE8F08345D8000871
:101FF00000C20008F5D700081ED80008B2F5802FEF
:102000002DE9F8430ED33E493E4A3F4840F2E123D2
:1020100008F0B5FA3D4808F0B2FA40F2E12139483B
:1020200008F0A4FA042A0CD83949364A36484FF445
:102030003A7308F0A4FA374808F0A1FA4FF43A715D
:10204000EDE7043ACD1D114425F0070521F0070600
:10205000A6EB0508B8F1170F4FEAD8070CD82E49A0
:10206000284A294840F2F12308F089FA294808F063
:1020700086FA40F2F121D2E7B7FA87F4C4F12002E0
:10208000C4F12404A4000734E408631C4FF00009E1
:10209000BB420560AF60C5F80C900CD91F49194AC6
:1020A000194840F2073308F06AFA1A4808F067FA4C
:1020B00040F20731B3E74946920005F1100009F0FC
:1020C000F0FCA2B2530043F001036B803B1B9BB2B8
:1020D00005EBC4015800A5F80090488025F834208D
:1020E000A6F8029025F8083005EBC70321465A8868
:1020F00042F001025A802846BDE8F843FFF71ABEB5
:10210000C5D800086AD80008F7C90008DBD800085D
:10211000F2D8000813D900082CD9000855D90008B6
:1021200008B5024808F015FA002008BD88D9000853
:102130000E4A9042034602D30D4A904211D30D4AF3
:1021400022B1934202D30C4A93420AD30B4A52B1B2
:102150000B48834234BF01200020934238BF002047
:102160007047012070471046704700BF80BB0008D1
:10217000D80401080000000000000000000000007A
:10218000000000002DE9F04F91B0994602F00403E1
:1021900005460293C2F3C2030133AC07DDF868A021
:1021A00004930E46104640F0C5812C1D002D3DD1F4
:1021B00001F00706341DC6F1080600274FF0FF3373
:1021C0004FF0040800F00201019309F1FF32039778
:1021D0000097BB46434605910DB1C4F800900498A2
:1021E000002809DC4846CDE90632FFF7A1FFDDE90A
:1021F0000632002800F0BE800598002800F0E58037
:10220000A4EB050C0120BCF5007FC0F0B980944917
:10221000944A95484FF4227308F0B1F9934808F0B6
:10222000AEF94FF422718F4808F0A0F90729C4D8FD
:102230006FF01B0011B0BDE8F08F7A285BD84B28F7
:102240000FD8472857D829282ED8252850D052D81B
:10225000202818BF23280CBF4FF0010B4FF0000BB4
:1022600071E04C382E2846D8DFE800F06D45454532
:10227000454545454545454548454545454545450B
:1022800045564548485656566D486A456D45184866
:102290001845457F7C48454548457C0000204FF067
:1022A000000B4FF0040835E02A38C0B2012101FAD2
:1022B00000F010EA0E0F46D110F0625C2CD110EA4B
:1022C000010B40D06046013C4444B4FBF8F408FBE9
:1022D00004F425B1A3EB050CA444B445A8D8002808
:1022E00000F08E8004995AF8049B0139049173E739
:1022F0000199013901914FF0000B24E012F8010C13
:102300006C2834D112F8023C00206C2B8346C8D1D3
:102310004FF008084346D6E70AF1070A2AF0070AF1
:102320000734FAE802BC24F0070435B106982044CB
:10233000B0423FF67DAFC4E900BC08344FF0000B5B
:102340004FF00808434612F8010F002871D0BBF186
:10235000000F7FF472AF2528F5D1019B0133019363
:102360004FF0010B4FF00408ECE7584697E70020C8
:102370008346A8E70599A4EB050C00297FF443AF39
:1023800000990F290CD93649364A374840F28D2337
:1023900008F0F5F8364808F0F2F840F28D2142E7EF
:1023A000F5B1009940310DEB010ECCF3870C01998A
:1023B0000EF820CC0EF8101C70B16CF07F0C0EF8EB
:1023C00020CC0137009801300090C5F10801043499
:1023D00006914FF6DA7EB6E7039801300390F1E7F5
:1023E00008B10136EEE7029902360029EAD14846E3
:1023F000CDE90632FDF7C6FEDDE906320644E1E727
:10240000042B08D10AF1040015B1DAF8001021609C
:102410000434824697E70AF1070323F0070303F128
:10242000080A1DB1D3E90001C4E9000108340823FA
:1024300089E7631BB3F5806F0CD30949094A0A4841
:1024400040F2DE2308F09BF80A4808F098F840F2C2
:10245000DE21E8E685B9A6F10804E018EAE600BF47
:1024600020F70008C3D90008F7C90008F1D900080F
:1024700012DA00082CDA0008029A28609B082B70F8
:102480009DF80C30BAB1EB70AF7037B108A80022DC
:10249000C5F1010C009B93420FD1C5F101030DF171
:1024A00020084FF0000A01930DF1300B009B5345BB
:1024B00012D1601BBEE66B70E6E710F8013B19060F
:1024C00008D50CEB040EB64503F07F033FF6B0AE23
:1024D00004F8013B0132DDE71FB198F90020002A22
:1024E00017DB029BD3B11AF80B2004F8012B002252
:1024F000019B18191044B0423FF69AAE98F80000BC
:1025000004F8010B49462046039209F0BCFA039AED
:1025100014440AF1010A08F10108C7E798F80020FD
:10252000029B55F8229045F822304846FDF72AFED6
:10253000421CDDE76FF00D007CE600BF014B186028
:10254000704700BF900200202DE9F34106460F4678
:1025500015464FF000082A4601A9304608F034F825
:10256000044640B102463946019809F08CFA2D1B09
:10257000A0442744EFD14246311D304608F042F8CE
:1025800048B107490748084A492307F0F8FF0648B9
:10259000492107F0EBFF404602B0BDE8F08100BFE3
:1025A0008ADA0008F7C900085FDA00082DE9F3416C
:1025B00007460E4615464FF000082A4601A9384640
:1025C00008F011F8044648B12EB102460199304690
:1025D00009F059FA26442D1BA044EED1424607F1DA
:1025E0000A01384608F00EF848B107490748084A7A
:1025F000642307F0C4FF0648642107F0B7FF404694
:1026000002B0BDE8F08100BF8ADA0008F7C900080F
:102610005FDA0008034A536823F002035360002086
:10262000704700BF002004E008B541681048114A17
:102630008368934201F10C0107D20F4A934204D3FD
:102640001B6883B96FF057000EE00C4A0C490D4827
:10265000B62307F094FF0C490C4807F090FF074899
:10266000B62107F083FF984700EAE07008BD00BF7D
:1026700050BC000830C1000814C1000893DA0008FB
:10268000CDDA0008F7C9000849DC000869CB00086A
:10269000082810B502D90024204610BD044B53F879
:1026A0002040204609F0CFF80028F5D1F3E700BF1D
:1026B000A4C30008084B1A6842F480721A601A68B2
:1026C00042F400721A601A6842F480621A60034B86
:1026D000034A1A60704700BF003C0240F00200202D
:1026E0000024F40008B558B907490848084A40F2E0
:1026F000351307F044FF064840F2351107F036FF66
:102700004368587908BD00BF34DD0008F7C90008E8
:10271000FCDC000810B548B908490948094AA0235B
:1027200007F02DFF0748A02107F020FF03681B6971
:1027300013B1BDE810401847184610BD34DD00083D
:10274000F7C90008FCDC00082DE9F84FDFF8ECA021
:10275000DFF8EC80AAEB08038F2B81460F460BD9DC
:102760003849394A394840F2531307F008FF40F21C
:102770005311354807F0FAFE354807F0FCFF0646CE
:1027800050B3BDE8F88F237B8BB12368DB680BB1B6
:10279000204698476368204683F806B0FFF7BAFFE3
:1027A000B0B9636804221968204608F009F80136B8
:1027B0001034544515D92749234A244840F25F1361
:1027C00007F0DDFE244807F0DAFE40F25F11D0E7A3
:1027D0000BFA06F31D43EAE7444605464FF0010BAA
:1027E000E7E7D0D3B9F1000FCBD04FF00109002DAE
:1027F000C7D02E4695FAA5F4B4FA84F409FA04F386
:1028000008EB04146FEA030A25EA0305237B5BB196
:102810002046FFF77FFF38B9636804221968204615
:1028200006EA0A0607F0CCFF002DE3D11FB16420B1
:10283000002106F04FFA3546D9E700BF48C200082C
:1028400038C2000878DD00084BDD0008F7C9000831
:102850008C0A0020A8DD0008C9DD0008014B53F8F0
:1028600020007047C8C3000808B5034608462BB1CE
:10287000044A136000F0EAFA002008BD6FF015006A
:10288000FBE700BF98020020144A1548002310B54A
:102890001370144A1360144A4FF47A711360FFF7EF
:1028A000E3FF124B124918468B4215D91149124ABF
:1028B000124840F22B1307F062FE114807F05FFE4A
:1028C0000D4840F22B1107F051FE1A1A5C681211E4
:1028D000013222711033E7E7F7D310BDA80C0020B6
:1028E00067A70008840A0020880A002038C2000870
:1028F00048C20008A8DD00084BDD0008F7C9000841
:10290000C9DD000870B5134D297811BB0120FFF710
:102910001BFF114C114EB44218D91149114A1248EB
:1029200040F2CF1307F02BFE104807F028FE0D48A9
:1029300040F2CF1107F01AFE2046FFF7D3FE18B180
:10294000236820469B6898471034E4E7F4D30123BA
:102950002B7070BDA80C002038C2000848C20008C7
:10296000A8DD00084BDD0008F7C90008C9DD000834
:1029700010B50446084807F0FEFE5CB1BFF35B8F5C
:10298000064B53E8001F013943E80012002AF8D132
:10299000BFF35B8F10BD00BF840A0020880A0020AF
:1029A00070B5154B1B6805469847A860134BBFF3DD
:1029B0005B8F1B68BFF35B8F114C124EB44219D969
:1029C0001149124A124840F20A2307F0D8FD114873
:1029D00007F0D5FD0D4840F20A2107F0C7FD20465B
:1029E000FFF780FE20B1236829461B6820469847E0
:1029F0001034E3E7F3D370BD980200209402002066
:102A000038C2000848C20008A8DD00084BDD0008F5
:102A1000F7C90008C9DD0008044A054B9B1AB1EB51
:102A2000D30F34BF52F831000020704760C1000856
:102A300038C200082DE9F04F87B004AFD7E90EBACD
:102A40003E6B0546884614469946BBF1000F2CD0D4
:102A5000C7F804A0CDF800A07A6B5B4610210020D7
:102A6000FFF790FB00280BDA29492A4A2A484FF43D
:102A7000BF7307F084FD4FF4BF71264807F076FD61
:102A8000B0F5006F014612D340F2FF730393234B5E
:102A900002930023CDE9003321490222184607F0B2
:102AA000B1FE0C37BD46BDE8F08F5946584604F0DC
:102AB000070205F00704E40044EA821444EA4024D3
:102AC00044EA065417360E4426F00706ADEB060D11
:102AD00004ADBBF1000F13D0CDF800A07A6B5B46BC
:102AE00005F11000FFF74EFB002809DA0849094AF2
:102AF000094840F2A31307F042FD40F2A311BCE7DE
:102B00004B4622464146284607F063FEC9E700BF10
:102B100021DE0008F5DD0008F7C900082BDE0008FB
:102B2000A8C10008406820B1034BC01A40F3CF0091
:102B300070474FF0FF30704760C100080EB403B516
:102B400003AB014653F8042B0448019301F0BAF992
:102B500002B05DF804EB03B0704700BF41A8000865
:102B6000CA0605D48B064CBF02490349FFF7E6BFEE
:102B7000704700BFE7F9000863DE00082DE9F04F59
:102B800089B004469DF85070DDF858A0DDF86080EB
:102B900005920D469946002F00F0AC80914B042F12
:102BA000DB5D06930BD99049904A91484FF4187316
:102BB00007F0E5FC4FF418718C4807F0D7FC08F4D7
:102BC0008073079307F0FAFD08F0020B0246002815
:102BD0005DD088492046FFF7B1FF0646BBF1000FE4
:102BE00008D018F0440F54D183492A462046FFF7F5
:102BF000A5FF064408F0010353B1804B804953F808
:102C00002720804B2046002A08BF1A46FFF796FF70
:102C100008F48073002B08F0080318BF4FF0000978
:102C2000002B62D0784B794953F827202046FFF7D4
:102C300085FF0546059B2BB175491A462046FFF7CF
:102C40007DFF0544B9F1000F0CD0069B002B4FD03F
:102C50007049714B042F18BF19464A462046FFF7AA
:102C60006DFF05446D483544159B002B48D06C49D9
:102C7000224607F039FC002842DA6A495B4A5C4880
:102C800040F2BD2307F07BFC40F2BD2194E70646ED
:102C9000A4E7654B18680028ABD0644B4FF47A7BEF
:102CA0001B68B5FBF3F54FF46163B5FBF0F100FB76
:102CB00011550BFB05F54FF03C0CB1FBF3F203FB98
:102CC0001211B5FBF0FEB1FBFCF300FB1E550CFB33
:102CD00013110BFB05F50091B5FBF0F55449CDE957
:102CE00001E52046FFF72AFF83E708F00805A1E782
:102CF0004949B2E7012B0CBF48484E483D46B3E76F
:102D0000179B002B54D0DDF85C904146B9F1100FB1
:102D1000204628BF4FF01009FFF722FF0026B542DA
:102D200018DC002633461AF8032043492046FFF7F3
:102D300005FF0136102E13D0720703D13F492046FC
:102D4000FFF7FCFEB1453346EDD83D492046FFF77D
:102D5000F5FEEEE739492046FFF7F0FE0136DEE7E3
:102D6000384920460026FFF7E9FE33461AF80320CB
:102D70003549A2F120035F2B28BF2E222046FFF702
:102D8000DDFE0136102E0DD0730703D12B492046EE
:102D9000FFF7D4FEB1453346E8D828492046FFF76F
:102DA000CDFEEEE7179BB3EB0903CA441793AAD1F4
:102DB0005FB118F0010F04D0124A11492046FFF705
:102DC000BDFE41462046FFF7CBFE6268A168206841
:102DD000D2E9002307F026FD636800221A6009B0DB
:102DE000BDE8F08F80040108A3DE000874DE00084F
:102DF000F7C90008AEDE0008B2DE0008D8C300083C
:102E0000BDD1000866DE0008ECC30008D7DE00086C
:102E1000DDDE00086BDE00086FDE000841A8000858
:102E2000C53E0008E1DE0008940A0020900A002058
:102E3000BBDE00085DA80008EADE0008F2DE00083C
:102E4000F0DE0008F4DE0008F6DE0008074A002184
:102E50000123904206D8064A01B901231360054BAD
:102E60001860704740085B000121F2E740420F0004
:102E7000900A0020940A00202DE9F843124EDFF852
:102E80004C80DFF84C900D4604464718BC4202D1F6
:102E90002846BDE8F88314F8011BB368434505D202
:102EA0004B4503D3DB6930469847EFE7094A0A49A7
:102EB0000A48B82307F063FB09490A4807F05FFB9B
:102EC0000448B82107F052FBD8BD00085CC10008D7
:102ED00030C10008EDD300082CD40008F7C9000861
:102EE0007DDF000869CB000810B543681C680948FD
:102EF00008F0A9FC48B908490848094A992307F08D
:102F00003EFB0748992107F031FB23685B685C6052
:102F100010BD00BFD8BD000857DF0008F7C9000882
:102F200019DF0008014B03600020704734C400081B
:102F300080B505460E461746984605F0C9FF03467C
:102F400000F09AFDDFF83C90044649F80030424614
:102F500039463046A8470C4B1B7873B90B490C4ACD
:102F60000C4840F2463307F00AFB0B4807F007FB1A
:102F7000074840F2463107F0F9FA54F8090000F02A
:102F800017FD00BF08000000AB0C0020B6DF0008F2
:102F90008BDF0008F7C90008C9DF00080648074AA8
:102FA00008B5121A002107F0CBFC0548054A00219C
:102FB000121A07F0C5FC08BD40030020B00C002029
:102FC00000000010000000100A480B4A0B4908B529
:102FD000121A07F0B7FC0A480A4A0B49121A07F0FE
:102FE000B1FC0A480A4A0B49BDE80840121A07F02A
:102FF000A9BC00BF000000203C030020D804010849
:103000000000002000000020D8040108000000108B
:10301000000000101408010870B5064686B00D4681
:10302000002938D08B6805934B6804930B68039391
:103030000024244B24490293012223462046CDE953
:10304000004407F081FC6B6905932B690493EB68DE
:1030500003931E4B1C490094CDE9014301222346F2
:10306000204607F071FCEB690393194B1649009455
:10307000CDE9014301222346204607F065FCAB69F8
:103080000393144B10490094CDE9014301222346D8
:10309000204607F059FC012E0DD1EFF30583103BBC
:1030A00003930D4B02930023CDE9003306493246CA
:1030B000184607F049FC2946304606B0BDE8704086
:1030C00003F00ABDEBDF0008F8C100081AE00008B1
:1030D00049E0000858E0000886E0000830BFFFF72C
:1030E000FDBF00BF2DE9F0410B4EDFF8308006EB4D
:1030F0000807CC1B054632460949204608F0C3FCA8
:10310000A01942460021083C08F0CBFCAC6707F14F
:103110000800BDE8F08100BF0000000004000000CE
:1031200048C200082DE9F04385B00024564B0293B5
:10313000CDE9004423468046894620465349164639
:10314000012207F021FC524B9B6AD80640D5514B17
:103150000094CDE90143204623464C49012207F063
:1031600013FC11244A4B9B6A19070AD54A4B029358
:103170000023CDE9003345490122184607F004FC3D
:103180001224434DAB6A9A0724D50024434B029383
:10319000CDE9004423463D490122204607F0F4FBD7
:1031A0006F6BAB6A1B0659D53D4B38490397CDE988
:1031B0000143009423460122204607F0E5FBB9F1C4
:1031C000000F03D0AB6A23F08003AB62132403E04B
:1031D0001024C7E76FF015072D4B9B6AD8070AD557
:1031E000304B02930023CDE90033284901221846D1
:1031F00007F0CAFB1424264B9B6A99060AD52A4B72
:1032000002930023CDE9003320490122184607F03C
:10321000BBFB15241E4DAB6ADA0602D4AB6A9B07D2
:103220000AD56B68180507D54146384600F076FB8D
:10323000B8B180F309880224154B9A6A920642BFFE
:103240005A6A22F400525A629A6A42F0FF029A6263
:1032500020460023337005B0BDE8F0836FF01507FA
:10326000B4E7AB6AD906E7D51049114A114840F2D4
:10327000271307F084F9104807F081F90C4840F251
:10328000271107F073F900BF99E00008F8C10008A2
:1032900000ED00E0AFE00008E2E00008F5E0000823
:1032A0000DE1000823E1000842E10008A3E1000865
:1032B00071E10008F7C90008EDE100081FB500241E
:1032C000374B029301222346CDE90044354920467D
:1032D00007F05AFB344B9B6A9A015ED5334B314958
:1032E0000094CDE9014320462346012207F04CFB20
:1032F0001E202D4B9B6ADB010AD52D4B0293002328
:103300001846CDE900332749012207F03DFB1F2075
:10331000254B9B6A1C030AD5264B029300231846B3
:10332000CDE900331F49012207F02EFB21201E4B5F
:103330009B6A59030AD5204B029300231846CDE916
:1033400000331849012207F01FFB2220164B9B6A0D
:103350009A030AD5194B029300231846CDE900338E
:103360001049012207F010FB23200F4B9B6ADB035F
:103370000AD5134B029300231846CDE900330949BF
:10338000012207F001FB2420074A936A6FEA0343F6
:103390006FEA1343936204B010BD1D20A9E700BF7C
:1033A00010E20008F8C1000800ED00E028E2000883
:1033B0003BE2000855E2000873E2000898E20008CA
:1033C000B2E20008F0B585B00024434B0293CDE98A
:1033D0000044234607460E4601224049204607F096
:1033E000D3FA3F4B9B6ADB0465D53E4B3B490094C7
:1033F000CDE9014320462346012207F0C5FA1720F4
:10340000374B9B6A1D050AD5374B0293002318469C
:10341000CDE900333149012207F0B6FA1820304DCA
:10342000AB6A9C051FD50024304B02930122234632
:103430002046CDE90044294907F0A6FAAB6BAA6AF9
:1034400010040FD503932A4B24490094CDE901437E
:1034500001222346204607F097FA1FB1AB6A23F4F6
:103460000043AB6219201E4B9B6A59050AD5214BBC
:10347000029300231846CDE900331849012207F0D2
:1034800083FA1A20164A936A13F4807315D01A4BE4
:10349000029300231846CDE900331049012207F0BA
:1034A00073FA1B200E4A936A43F47F43936200230E
:1034B000337005B0F0BD1620A2E7926A9204F1D5F0
:1034C0000E4A06490093CDE901321846012207F061
:1034D0005BFA1C20E6E700BFDDE20008F8C1000847
:1034E00000ED00E0F3E20008E2E0000804E3000879
:1034F0001DE3000832E300084DE3000842E1000844
:103500002DE9F0418D4B0446586890B0C0F3080691
:10351000002383F31188BFF36F8F02F07F45B5F16D
:103520007F4F0CD102F00C05082D17D1844A854934
:103530000093CDE901321846012207F025FA8249AD
:10354000824A834840F21B4307F019F8814807F08C
:1035500016F840F21B417D4807F008F8120746BFF5
:103560000C461D460125002CE9D00027F31E8DF8DE
:103570001F70092B00F2CA80DFE803F005BEC2A16C
:10358000C8C8C8C8C8C6744B6E49DFF8B081009778
:10359000CDE9017300230122184607F0F5F98DF8F3
:1035A0001F70D8F82C6016F0020604D06B4B009701
:1035B000CDE9017307E0D8F82C30002B0BDA684B0B
:1035C0000096CDE9016300235E490122184607F009
:1035D000DBF9002239E0D8F82C305B007FD5614B55
:1035E00058490096CDE9016301223346304607F081
:1035F000CBF9D8F81430A26943F48073C8F81430BA
:10360000BFF34F8FBFF36F8F32F8023CD8F814200E
:1036100022F48072C8F81420BFF34F8FBFF36F8F6E
:1036200003F47F42B2F55F4F2FD1DBB2022B2CD1D6
:10363000236803934C4B43490096CDE90163012273
:103640003346304607F0A0F922689DF81F30CBB909
:1036500008AE04F1200720686168334603C30834CC
:10366000BC421E46F7D10F9B002D63D0C3F3080167
:1036700021B96FEA53236FEA43230F9308A9104639
:10368000FFF7CAFC10B0BDE8F0812C4B9A6AD2B2A9
:103690003AB10DF11F0201212046FFF743FD02461A
:1036A000D3E79A6A12F47F4F05D00DF11F01012074
:1036B000FFF788FEF3E79B6AB3F5803F02D3FFF77D
:1036C000FDFDECE72949214A214840F2ED2306F0AF
:1036D00056FF274806F053FF40F2ED213BE7234910
:1036E0001A4A1B484FF43C7306F049FF214806F084
:1036F00046FF4FF43C712EE70DF11F020021CBE78E
:103700000DF11F010020D3E71B4B50E71B4A1C4B58
:103710000C4910F4F87F08BF1346103ECDE903367C
:10372000184B02930023CDE900330122184607F01D
:103730002BF94EE76FF308039FE700BF00ED00E0B1
:1037400093E30008F8C10008BEE3000871E1000837
:10375000F7C90008D1E300080FE4000826E40008D8
:1037600047E4000855E4000874E4000820F7000866
:1037700090E40008B4E40008E4E4000865E300080D
:103780007AE3000808E50008044B5A6942F0100289
:103790005A615A6922F008025A61704700ED00E050
:1037A000EFF30880EFF3098101B57246FFF7A8FE39
:1037B00001BD00BF0A4880F30888102080F31188FB
:1037C00008484FF40461401880F30988EFF314802F
:1037D0000221084380F31488BFF36F8F00F066F86E
:1037E000002B0020401D00201EF0040F0CBFEFF343
:1037F0000880EFF30980816911F8021C0229FFD0CB
:1038000001B5724607F0B0F801BD00BF40B2002814
:1038100007DB044A4109012300F01F00834042F8FE
:103820002130704700E100E038B54B1C0F2B0446F7
:103830000D460FD9114A124912486B2306F09FFE1C
:10384000114829460F23224606F099FE0B486B21AA
:1038500006F08CFE40B20028ACBF00F160400B4A7D
:103860004FEA0313B8BF00F00F00DBB2AABF00F5A8
:103870006140135480F8003338BD00BF1BE50008D9
:1038800052E50008F7C900086DE5000814ED00E0F6
:10389000044B054A23F07F039360BFF34F8FBFF3C0
:1038A0006F8F70470000000800ED00E008B5FFF7DB
:1038B000EFFF0B4AD2F8883023F47003C2F8883047
:1038C000EFF3148323F0040383F31488BFF36F8FA3
:1038D000FFF764FBFFF778FB00F0B0F803F058FA4D
:1038E00000ED00E042F8203C009B42F81C3C0A49F5
:1038F000019B42F8183C029B42F8143C21F0010164
:103900004FF0807342F8043C42F8081C0023203A30
:103910000265C367704700BF312F0008094A03469C
:10392000906870B113F1160F806E05D0A0F14002BF
:10393000934205D3834203D2814228BF00207047BF
:1039400000207047540C002008B515460B4A0C4B5C
:103950009060826F1A600E4600F0A0F82C4686F345
:1039600009880020034B98472046002100220023AD
:10397000014C2047B7A90008312F0008540C002043
:10398000BC0A0020014B10221A61704700ED00E0D4
:10399000054B5A699B689A421FBF044A536843F01B
:1039A00080535360704700BF540C002000ED00E0CE
:1039B000084B9B6883420BD1EFF3058343B1064B61
:1039C0005A6842F080525A605A6A22F400425A629F
:1039D00004F012BB540C002000ED00E014498A688A
:1039E0004FF030001044EFF3098C80E8F01F1020F6
:1039F00080F31288BFF36F8F0E4F4FF000664A6955
:103A00008A603E60906F0C4C2060D06F0023D367BB
:103A100080F3118804B5104600F040F8BDE804407A
:103A200002F1300090E8F01F8CF309887047000025
:103A3000540C002004ED00E0BC0A002004480023E0
:103A40001021C2180133442B82F80013F9D17047BA
:103A500000E100E008B5EFF30583064A103B02EBF6
:103A6000C30152F8330049688847BDE80840FFF7B2
:103A70008FBF00BF2CBE00080148006870470000DF
:103A8000BC0A0020024B034A0348012100F096B80B
:103A9000000002200000002034C40008836E054AA4
:103AA000403B1360044B4021C2E901131046012141
:103AB00000F0AAB8C00A002000000B151FB5144A78
:103AC000D2F89030C3F30723013B98420FD9114B32
:103AD000029300230390CDE9003318460E490122DA
:103AE00006F08DFF6FF0150005B05DF804FBC2F81D
:103AF00098000B6823F01F03034343F01003C2F840
:103B00009C308B6843F00103C2F8A030ECE700BFA3
:103B100000ED00E0B1E50008F0C10008F0B50E4688
:103B200089B01F4604460025B54212DA606838B3F2
:103B3000BFB1431E18420FD0134B02930023CDE9AF
:103B40000033124903950122184606F058FF6FF022
:103B50001502104609B0F0BD1F28EDD921680B42AF
:103B6000EAD12368059306F03AFFA36805A9034349
:103B7000D0B20793FFF7A2FF10F1160FE7D0421C57
:103B800001350C34D0E700BFD7E50008F0C10008CC
:103B9000044B0522C3F89420BFF34F8FBFF36F8F00
:103BA000704700BF00ED00E0BFF35F8F024B0022C3
:103BB000C3F89420704700BF00ED00E038B50D4D0C
:103BC00001232A780C46FFF7A9FF287016300FD181
:103BD000094A0A490A4840F2891306F0D0FC09480C
:103BE000214606F0CCFC044840F2891106F0BEFCE8
:103BF00038BD00BFAA0C0020FDE5000820F7000832
:103C0000F7C900082CE6000810B5144A0023127802
:103C10000C46FFF783FF10F1160F08D0104A002161
:103C2000D2F89030C3F30723984210DB10BD0D4A41
:103C30000D490E484FF4D47306F0A1FC0C48214600
:103C400006F09DFC07484FF4D47106F08FFCC2F8D3
:103C50009800C2F8A0100130E2E700BFAA0C0020D3
:103C600000ED00E0FDE5000820F70008F7C90008B6
:103C700058E600082DE9F04F834C8449D4F8903081
:103C80000D68C3F307239D4285B013D9804A81494B
:103C9000814840F2022306F072FCD4F890207F485D
:103CA0002946C2F3072206F06AFC40F20221784856
:103CB00006F05CFCFFF778FF49680022954201F1AD
:103CC0000C012DD1764F774C3D706846FFF72AF9ED
:103CD000754D764E81464FF00008C14533D13B7893
:103CE00069490020D1F89020C2F307229342C0F224
:103CF000C180FFF74DFFD1F8903003F47F43B3F557
:103D0000006F00F0BD806A49614A634840F27D233C
:103D100006F035FC674806F032FC40F27D21C6E72C
:103D2000C4F8982051F80C3C23F01F03134343F0D0
:103D30001003C4F89C3051F8043C43F00103C4F86C
:103D4000A0300132BAE7009A02EB08134FEA0811DB
:103D5000D3F80CA00AEA0400B0F5000F66D00BD827
:103D6000B0F5001F3CD0B0F5800F52D0B0F5801FE9
:103D700016D008F10108B0E7B0F1007F61D0B0F1D2
:103D8000805F69D0B0F1807FF3D19868D3F804A048
:103D9000525806F024FECDE901A240F088700BE0F5
:103DA0009868D3F804A0525806F019FECDE901A294
:103DB00040F0885040F430200390387801A9FFF794
:103DC0007DFE002852DA3349314A334840F2352328
:103DD00006F0D5FB384806F0D2FB40F2352166E705
:103DE0009868D3F804B0525806F0F9FD1AF0010FA4
:103DF00040EA0600CDE901B20390DED02F49244A03
:103E00002548842306F0BBFB2D4806F0B8FB84212F
:103E10004DE79868D3F804A0525806F0E0FD40F052
:103E2000C060CDE901A240F40030C5E79868D3F83E
:103E300004A0525806F0D3FDCDE901A240F08270F3
:103E4000BAE79868D3F804A0525806F0C8FDCDE947
:103E500001A240F48020AFE79868D3F804A052583C
:103E600006F0BDFDCDE901A22843A5E73B7801336B
:103E70003B707EE7C1F89830C1F8A000013331E70C
:103E8000002005B0BDE8F08F00ED00E040C4000860
:103E9000FDE5000820F70008F7C9000885E60008DE
:103EA000AA0C00200000F0FF000002110000081121
:103EB00038E7000888E700080EE70008B9E60008C0
:103EC000DFE60008F0B587B007460E46144600212D
:103ED000102268461D4607F0E4FD02238DF80230EB
:103EE0002A46054B019321466846CDE9047605F044
:103EF000FDFE07B0F0BD00BF1FAA000808B5024BC9
:103F00001B689847002008BDCC0A0020034B044AD8
:103F10001860937843F0020393707047CC0A002036
:103F2000A402002008B50649064821F00701C1F1A6
:103F3000005202F50032FEF761F8002008BD00BF14
:103F4000872F0020D00A002008B509484FF0FF3223
:103F50004FF0FF3303F0B2F948B106490648074A6B
:103F60007F2306F00CFB05487F2106F0FFFA08BD11
:103F7000B4020020F2E70008F7C90008B8E700081B
:103F8000014803F063BA00BFB402002010B5044634
:103F9000FFF7DAFF21460348FDF78EFFBDE810402A
:103FA000FFF7EEBFD00A002007B5124A92E80300DF
:103FB000CDE900011048114982688A4207D21049B0
:103FC0008A4204D3126882B96FF057000FE00D4A9D
:103FD0000D490E48B62306F0D2FA0D490D4806F0F9
:103FE000CEFA0848B62106F0C1FA6946904703B0F8
:103FF0005DF804FB60C2000850BC000830C1000836
:1040000014C1000893DA0008CDDA0008F7C90008E7
:1040100049DC000869CB00081FB51F2800F01F030A
:104020004FF0010202FA03F30DD90024094B03906B
:1040300002932046CDE900440749234606F0FAFCE6
:10404000204604B010BD054A526993430CBF0120BD
:104050000020F6E700E80008A0C10008003C01408D
:104060001FB51F2800F01F014FF0010202FA01F1F5
:104070004FF000030DD909490390CDE901311846ED
:104080000749009306F0D6FC6FF0150005B05DF807
:1040900004FB044A18465161F8E700BF00E8000835
:1040A000A0C10008003C0140044B18440023013328
:1040B0008B4200F8012BFADB704700BF040300209D
:1040C0002DE9F041104F054600264FF001086B78AE
:1040D000F4B2A34201D8BDE8F0812B781C442046FD
:1040E000FFF79AFF68B12046FFF7BAFF57F8343060
:1040F0003BB107EBC40204F01F04516808FA04F056
:1041000098470136E3E700BFDC0A002008B510B18C
:10411000431E03420CD00E490E4A0F48602306F09E
:104120002EFA0E4806F02BFA60210A4806F01EFA15
:10413000B0FA80F0C0F11F000F2807DD0849054ADA
:104140000548612306F01BFA6121EEE7C0B208BD05
:1041500082E8000840E80008F7C90008B7E800084E
:10416000E0E8000810B50446FFF7D0FF044B1856EE
:10417000044B1A6814431C60BDE81040FFF746BBAF
:1041800004030020003C0140024A136823EA0003B4
:1041900013607047003C014008B5174B03291ED837
:1041A000DFE801F0020B0E169A6822EA00029A601C
:1041B000DA6822EA0002DA6008BD9A680243F6E78C
:1041C000DA680243DA609A6822EA00029A60F3E74A
:1041D0009A6802439A60DA681043D860ECE70749AE
:1041E0000748084A4FF4817306F0C9F905484FF4AF
:1041F000817106F0BBF900BF003C014020F70008C8
:10420000F7C9000840E8000838B50D461446FFF726
:104210007DFF0A4B53F83020AA4204D103EBC001C2
:104220004968A14205D032B943F8305003EBC003CE
:104230005C60002038BD6FF00F00FBE7DC0A002057
:1042400008B5FFF763FF044B002243F8302003EB6F
:10425000C0035A6008BD00BFDC0A002000F0030262
:10426000043292000F23934043EA9000C3B202331A
:10427000054A52F82320030C02EA104093FAA3F3F4
:10428000B3FA83F3D84070470038014038B52B4B60
:1042900018680B88C3F30B03162B14460D464FEA20
:1042A000900219D80BB3013B152B1ED8DFE803F0A1
:1042B0000D3A0B3A36242C1D1D1D1D1D1D1D1D1DE7
:1042C0001D1D1D1D380D4FF4FA4020602B68B3F5FD
:1042D000805F2BD2002038BD402B25D008D823F09A
:1042E0000402302AF1D0382BEFD06FF08500F2E7CE
:1042F000442B07D0A82BF7E700F0CEF84FF4A873B3
:10430000C00858434008E0E700F0C6F84FF4A8732F
:10431000C00858430723B0FBF3F0D6E70848D4E7BA
:104320005000D2E70020D0E71046CEE7C3F31333A6
:104330000133B0FBF3F02060CCE700BFF0020020B7
:1043400000127A00162808D8054BC34013F0010F5D
:104350000CBF6FF08500002070476FF0850070473C
:10436000EA006000F8B5474E474F00F0B5F8304618
:1043700006F050FC02F094FABB68444AC3F30313FE
:104380001478D35C46FA04F420FA03F5A54202D26D
:10439000204602F0F5FA3B6823F480233B603B683B
:1043A00043F480333B60384B1A689103FCD55A6F55
:1043B00042F001025A675A6F9207FCD59A6802F0E0
:1043C0000C02082A17D11A68970707D41A6842F016
:1043D00001021A602C4A13689807FCD52A4B9A6888
:1043E00022F003029A609A6812F00C0FFBD19A68CF
:1043F00022F0F0029A60244F3B6823F080733B6008
:104400003B689901FCD4224AD2F8043823F44033A3
:10441000C2F80438D2F8043823F0706343F0E06344
:10442000C2F8043800F03CF83B6843F080733B600E
:10443000154B1A689201FCD59A6822F0F0029A6036
:104440009A6822F0030242F002029A609A6802F02F
:104450000C02082AFAD1A54202D3204602F090FAB3
:104460000C4B094A1E60936823F4E05343F4A053B5
:104470009360936823F4604343F400439360002007
:10448000F8BD00BF007A030A00380240BF040108EB
:1044900000300240F00200200048704700127A000D
:1044A000084B09495A681140084A0A435A605A6839
:1044B000074922F440325A605A681140054A0A43BB
:1044C0005A607047003802400080BFFF0854400027
:1044D0000080BFF008544007064B1A6C42F080522F
:1044E00082B01A641B6C03F080530193019B02B0ED
:1044F000704700BF0038024001460D480D4A8368EE
:10450000934210B506D20C4A934203D3BDE8104043
:10451000DB691847094A0A490A48B82306F02FF808
:1045200009490A4806F02BF80448B82106F01EF89D
:10453000D8BD00085CC1000830C10008EDD30008F8
:104540002CD40008F7C900087DDF000869CB0008FB
:1045500008B5074807F077F938B10648FFF7D6FCE9
:104560000448FDF7EBFF002008BD6FF01200FBE7E9
:10457000D8BD000817AC00082DE9F0414368144687
:10458000D3E904828A4213D91C2508469E694D430B
:1045900000F0F0FB084B1B5C434477195B689BB24F
:1045A000636073596370BB7923700020BDE8F081AC
:1045B0006FF01500FAE700BF930401087FB50546C8
:1045C00046682148214A8368934213D2204A934285
:1045D00010D31B68E3B91F4B02930023CDE90033CE
:1045E0001D490122184606F065FB6FF004042046C1
:1045F00004B070BD194A1A491A48B62305F0BFFF26
:1046000019491A4805F0BBFF1448B62105F0AEFF62
:104610003146984704460028DDD1B36828469847BC
:1046200023461C2120467269934207D32A6900233E
:1046300013602A6953602A699360D8E7B26901FB65
:10464000032201339071EEE750BC000830C100082E
:1046500014C1000869E9000890C1000893DA000855
:10466000CDDA0008F7C9000849DC000869CB00086A
:104670002DE9F04F99B0D0F804B0069009A80E4685
:10468000DBF81070144607F0BFF8DBF81430B342C3
:1046900006D89D4B039602930023CDE9003349E0F1
:1046A000DBF818A04FF01C0909FB06F90AEB090515
:1046B000A97901F0FF0381B1944B02930396002383
:1046C000CDE9003392490122184606F0F3FA6FF063
:1046D0000F08404619B0BDE8F08F314638460793C1
:1046E00006F0F7FA079B804618B18A4A03960292B1
:1046F000E6E7069B3146586806F0FFFA638803F444
:10470000FE53B3F5FE5F09D10123AB716B71A36951
:104710006B6163692B6185F81880DAE721694B6961
:10472000B3F5803F0ED303937B4BCDF80080CDE9EA
:104730000183434676490122184606F0BBFA6FF022
:104740001508C6E763785A0711D19BF80C3073B986
:10475000069A6F4912680392704A0093CDE90132BC
:104760001846012206F0A6FA6FF08508B1E7A28884
:10477000E38893420AD06A4B02930023CDE90033C9
:1047800063490122184606F095FAD8E7042B05D0B4
:104790005A1E012A02D90393624B7CE70B7FC3F3B5
:1047A0008012B2EBD31F01D05F4BE5E70123AB7161
:1047B000A3696B61637803F007034AF80930636902
:1047C0002B61A388AB60E388EB6023691B7FC3F395
:1047D00080132B7623691B6843B9544A4C490093D4
:1047E000CDE901321846022206F064FA23695B68BB
:1047F00043B94F4A46490093CDE901321846022297
:1048000006F058FAA388E2885AF80900DFF824E194
:10481000002B93FAA3F1B1FA81F192FAA2F308BF47
:104820004FF0FF31002A2269B3FA83F308BF4FF03B
:10483000FF330128D2F800B03F4814D1CDF828B09A
:10484000D2F804C050F821105EF82330CDF824C00F
:1048500010910F93A37803F00F03032B21D8DFE807
:1048600003F0230F251DD2F804C05EF8211050F884
:104870002330CDF824B0CDF828C00F911093E9E78C
:104880004FF480331393637803F00703012B10D0A8
:10489000022B1FD033B30393284BFCE64FF4403375
:1048A000F0E70393264BF6E60023EBE74FF40033E3
:1048B000E8E740230B93137FC3F38102C3F3011393
:1048C000012A3FF451AF022A0ED0D2B10323039341
:1048D0001C4BE0E600230B93137FC3F30112C3F3D9
:1048E0008103EDE78023F6E70022012B0E923FF4CF
:1048F0003BAF022B2AD0002B48D003230393124B4B
:10490000C9E64FF48062F0E77AE900089EE9000802
:1049100090C10008B5E90008D6E90008EDE90008F3
:1049200011EA000833EA000850EA000886EA0008A5
:10493000A5EA00087CC4000888C40008D5EA00087D
:10494000C2EA0008E9EA000804EB000800230D931E
:104950002B7E1B020C935AF809108B1E59425941A9
:1049600029712289A088B2FBF0F300FB13239BB2CC
:104970007BB1CDE90320594B02930023CDE90033ED
:1049800057490122184606F095F9D8E64FF400730E
:10499000DDE76289E088B2FBF0FA00FB1A2A1FFA11
:1049A0008AFABAF1000F04D0CDE903204D4A0292F1
:1049B000E4E7204600F004FC16902979204600F038
:1049C00049FC94F80190179019F00709207808D055
:1049D000072816D9444BCDF800A0CDE901A35346D2
:1049E000CEE607280DD9414B3D49CDF80090CDE9E1
:1049F000019348464B46012206F05CF984F800908A
:104A0000484600F0D1F923691290587F00F00F005A
:104A100000F06AFC159009A806F008FB80001490CD
:104A200023692A795B6972B3A288B3FBF2F330463B
:104A3000119300F09FF909AA0146384601F05EFF84
:104A4000304600F097F92A4C225CD35943F0040316
:104A5000D3512B7ECBB16B69BBB9149B042B304671
:104A60002AD100F087F9235C3B4430465A6942F072
:104A700004025A6100F07EF9235C3B445A6942F01B
:104A800080025A6125E6E288CFE7304600F072F9ED
:104A9000225CD35943F01003D3512B7E002BDCD082
:104AA0006B69002BD9D0304600F064F9225CD359F1
:104AB00043F00803D351D0E700F05CF9235C3B449A
:104AC00030465A6922F004025A6100F053F9235C1F
:104AD0003B445A6922F08002D3E700BF1FEB000875
:104AE00090C100085CEB0008A3EB0008B3EB0008E2
:104AF000930401082DE9F04143685A698A42074648
:104B00000C462BD99D691C2202FB015595F80580A6
:104B1000B8F1000F04D00023AB710020BDE8F08194
:104B20001E69304600F012FB0028F6D0204600F047
:104B300021F90C4B1A5C935923F010039351214631
:104B4000304600F02DFB7868214606F0D6F8214665
:104B5000304606F0BEF885F80680DEE76FF01500F7
:104B6000DCE700BF930401082DE9FF41804640685F
:104B7000D0E904738B420C4609D83B493B483C4A78
:104B8000602305F0FCFC3A48602105F0EFFC8569E4
:104B90001C2303FB01556B7933B9AB7923B904B0FE
:104BA000BDE8F04106F0A9B82146384600F080FA89
:104BB00090B16B795BB101236E69002E51D02969E8
:104BC00022464046B44604B0BDE8F0416047214665
:104BD000384600F003F9EEE72146384600F052FA75
:104BE00058B12B7E03B9AB716B790BB10023E3E7AE
:104BF0002146384600F00EF9F8E72146384600F025
:104C00006DFA6E79A8B18EB91A4B1B490096CDE9A1
:104C1000016301223346304606F04CF821463846FF
:104C200000F0FEF92146384606F0F1F96FF0040372
:104C3000C2E7002EFAD1114B0F490096CDE901636E
:104C40000122334606F036F8AE71D8F8043021461A
:104C5000186900F0E5F9D8F80400214606F04DF88F
:104C6000E4E704B0BDE8F08107EC0008F7C90008EC
:104C7000DCEB000820EC000890C1000839EC0008CB
:104C80002DE9F84F994643689246D3E904528A4287
:104C90000C4613D94FF01C0B28469F690BFB01FBF8
:104CA00006F017F807EB0B08064600285DD157F809
:104CB0000B30012B07D033F0020333D06FF0150611
:104CC0003046BDE8F88F204600F054F8DFF8A0B079
:104CD0001BF800302B442046C3F80CA000F04AF823
:104CE0001BF800302B44C3F8089098F80430DFF824
:104CF000809020464BB300F03DF819F80020D8F81A
:104D000008300A98B0FBF3F32A4451686FF30F019F
:104D10000B435360012388F806302146284600F0F3
:104D200007FACDE7204600F025F8DFF844B01BF87D
:104D300000302B442046C3F808A000F01BF81BF8F5
:104D400000302B44C3F80C90CFE700F013F819F8AB
:104D50000030D8F80C100A98B0FBF1F72B445A68D1
:104D60006FF30F0217435F60D4E76FF00F06A7E7FA
:104D700093040108072808B509D907490748084AD4
:104D8000212305F0FCFB0648212105F0EFFB054B34
:104D900053F8200008BD00BF8EEC0008F7C90008DA
:104DA00060EC0008F4C50008072808B509D90749D0
:104DB0000748084A342305F0E2FB0648342105F091
:104DC000D5FB054B53F8200008BD00BF46ED000899
:104DD000F7C9000860EC0008D4C50008072910B521
:104DE00009D908490848094A472305F0C8FB07487C
:104DF000472105F0BBFB064BBDE8104053F82130BE
:104E0000184700BF04EE0008F7C9000860EC00086E
:104E1000B4C50008072910B509D908490848094A46
:104E2000592305F0ACFB0748592105F09FFB064BC1
:104E3000BDE8104053F82130184700BF04EE0008C9
:104E4000F7C9000860EC000894C50008072908B5F8
:104E500009D9094909480A4A6B2305F090FB08481B
:104E60006B2105F083FB074B53F82130984700383E
:104E700018BF012008BD00BF04EE0008F7C90008F4
:104E800060EC000874C50008072908B509D909496C
:104E900009480A4A7D2305F072FB08487D2105F088
:104EA00065FB074B53F821309847003818BF0120A5
:104EB00008BD00BF04EE0008F7C9000860EC000858
:104EC00054C50008072910B509D908490848094AF6
:104ED0008F2305F054FB07488F2105F047FB064B55
:104EE000BDE8104053F82130184700BF04EE000819
:104EF000F7C9000860EC000834C50008072910B5A0
:104F000009D908490848094AA12305F038FB074890
:104F1000A12105F02BFB064BBDE8104053F82130D2
:104F2000184700BF04EE0008F7C9000860EC00084D
:104F300014C50008072910B509D908490848094AC5
:104F4000B32305F01CFB0748B32105F00FFB064B0C
:104F5000BDE8104053F82130184700BF04EE0008A8
:104F6000F7C9000860EC0008F4C40008072908B578
:104F700009D9094909480A4AC52305F000FB084830
:104F8000C52105F0F3FA074B53F821309847003854
:104F900018BF012008BD00BF04EE0008F7C90008D3
:104FA00060EC0008D4C40008072908B509D90949EC
:104FB00009480A4AD72305F0E2FA0848D72105F044
:104FC000D5FA074B53F821309847003818BF012015
:104FD00008BD00BF04EE0008F7C9000860EC000837
:104FE000B4C40008072908B509D9094909480A4A7B
:104FF000E92305F0C4FA0848E92105F0B7FA074BA0
:1050000053F821309847003818BF012008BD00BF71
:1050100004EE0008F7C9000860EC000894C400081A
:105020002DE9F04389B004460D46FFF72DFF2946D0
:1050300006462046FFF70AFF294607462046FFF7A7
:1050400095FF294680462046FFF7AEFF2946814658
:105050002046FFF7C7FF094B02930023CDE90690D6
:10506000CDE90478CDE900330549039603221846BB
:1050700005F0BEFF09B0BDE8F08300BFA8EE000850
:1050800098C1000838B5044608460D46FFF772FE81
:10509000064B1B5CE05810F0100005D02946204656
:1050A000BDE83840FFF7F0BE38BD00BF9B040108E3
:1050B00038B5044608460D46FFF75CFE064B1B5C00
:1050C000E05810F0080005D029462046BDE83840D9
:1050D000FFF7BCBE38BD00BF9B04010830B50446D5
:1050E00085B008460D46FFF745FE0E4B1B5C23447A
:1050F0005B691B0603D40024204605B030BD204662
:105100002946FFF76FFF04460028F4D0064B0293B0
:105110000023CDE9003305490122184605F068FF58
:10512000EAE700BF9B040108D0EE000898C1000820
:1051300010B504460846FFF71DFE034B1A5CA35842
:1051400043F00103A35010BD9B04010810B50446B1
:105150000846FFF70FFE034B1B5CE05800F0010010
:1051600010BD00BF9B04010870B5044608460D46FB
:10517000FFF700FE094B1A5CA35823F00103A3506C
:1051800029462046FFF7E2FF06460028F8D12046D0
:105190002946FFF73FFE304670BD00BF9B04010863
:1051A00010B504460846FFF7E5FD044B1B5CE0180C
:1051B000436923F08003436110BD00BF9B040108D5
:1051C0007FB5B9B1C6884589B5FBF6F306FB135424
:1051D0009CB11A4A1A491B484FF4B37305F0CFF932
:1051E00019482946324605F0CAF914484FF4B371FC
:1051F00005F0BCF986880589E6E7082B17D011D899
:10520000012B0CD0042B15D00393104B02930023D9
:10521000CDE900330E490122184605F0E9FE20468B
:1052200004B070BD102BEFD14FF0C074F7E74FF012
:105230008074F4E74FF40004F1E700BF60EC00086D
:10524000DCEE0008F7C9000802EF000837EF00089D
:1052500098C100087FB5B9B186880589B5FBF6F31A
:1052600006FB13549CB11A4A1A491B4840F2891391
:1052700005F085F919482946324605F080F91448A9
:1052800040F2891105F072F9C6884589E6E7082BD6
:1052900017D011D8012B0CD0042B15D00393104B31
:1052A00002930023CDE900330E490122184605F090
:1052B0009FFE204604B070BD102BEFD14FF4C00408
:1052C000F7E74FF48004F4E74FF40014F1E700BF70
:1052D00060EC00087CEF0008F7C9000802EF000846
:1052E00037EF000898C100081FB5032809D8DFE888
:1052F00000F012021406012005B05DF804FB032043
:10530000FAE7074B02930023CDE900330549022257
:10531000184605F06DFE0020EEE70220ECE700BF26
:10532000A2EF000898C1000838B561B92149224AA6
:105330002248642305F023F9214805F020F964216F
:105340001D4805F013F94B6853B91E491A4A1B480A
:10535000652305F014F91C4805F011F96521EFE704
:105360000369986800B30024884219D108688CB991
:10537000DC689860A14200D1D860002008602AB1A2
:105380009A680A60DA68996002B9D96000200FE073
:105390002846E9E72060D868814208BFDC60ECE776
:1053A00005680446002DF3D1002AE9D16FF01500FD
:1053B00038BD00BF18F00008DCEF0008F7C900088E
:1053C00021F0000830F0000842F000082DE9F84311
:1053D000D0F804900746D9F8080090460D461E46BE
:1053E00005F081FBB8F5001F044616D12846D9F810
:1053F0000840FEF733FF84420CD1294605F073FBC9
:105400000446FEF7C1FE2046FEF71AFF00212046A3
:10541000FEF7C2FE0020BDE8F883B8F5800F20D06B
:10542000B6F1806F19D0B6F1C06F18D0B6F1007F19
:105430001AD102260F493A462046FEF7E5FEB0B9DA
:10544000D9F80810284605F053FB20463146FEF7F0
:10545000A3FE2046FEF786FEDCE70126EAE70326E8
:10546000E8E76FF08500D6E76FF01500D3E76FF03F
:105470000F00D0E77954000870B50B690E469968A3
:10548000054609B10C6801B970BD8A682A4010D080
:105490004B6863B90A490B4A0B48892305F06FF83A
:1054A0000A4805F06CF80748892105F05FF8304696
:1054B00098471CB1236821461C46E4E72346FAE7D7
:1054C00059F00008DCEF0008F7C9000842F00008B6
:1054D0002DE9F047DFF864A2994BDAF808704668C6
:1054E000D0F81090346871699F4288B0804607D226
:1054F000944B9F4204D33B6883B96FF0570511E08A
:10550000914A92499248B62305F039F89149924858
:1055100005F035F88C48B62105F028F85046984734
:10552000051E0EDA8D4B039502930023CDE900335F
:105530008B490122184605F055FE284608B0BDE803
:10554000F087B369012B27D97169BB6908313BB179
:10555000002250469847054628B1824B0395E3E761
:105560006FF05705F9E77169FB6808318BB106AA3E
:1055700050469847071E1CDA7B4B03970293002383
:10558000CDE9003376490122184605F02BFE3D4651
:10559000D3E76FF05707EFE7744B02930023CDE991
:1055A00000336F490122184605F01CFE6FF0150507
:1055B000C3E7069BC9F80030D9E9010168B964481E
:1055C0006B4A6C4940F2671304F0D9FF6A4804F053
:1055D000D6FF674840F267119EE78368674A9342A7
:1055E00016D2674A934213D3DB68EBB9F06907AA76
:1055F000002105F0B5FD071E07DB079B0022197986
:10560000186805F0C0FD071E10DA5E4B0397B5E77A
:10561000574A5D494E4840F2671304F0B0FF5B49BA
:105620004D4804F0ACFFD4E79847DFE77368A36206
:105630000023E362236843F080032360544B9C42C1
:1056400047D0B4F1804F44D0A3F57C439C4240D076
:1056500003F580639C423CD003F580639C4238D0C4
:1056600003F578439C4234D003F570539C4237D104
:10567000236823F440732360454B9C4240F09080A4
:10568000002323633369202B0AD1B36823F040023F
:10569000202A01D0402B03D1236843F00403236068
:1056A0006368326923F0700313436360384B9C4294
:1056B00040F08B80636CF26823F0FF031343636454
:1056C000636C43F400436364236843F00103236085
:1056D00033E72368B26823F0700313432360C7E7FE
:1056E0002C4B9C42C4D003F580639C42C0D0A3F5F0
:1056F00098339C42BCD003F580639C42B8D003F53C
:1057000080639C42B4D0244B9C42BBD003F58063A1
:105710009C42B7D03369002B5BD0D8F8003003939C
:105720001E4B02930023CDE900330D490122184698
:1057300005F058FD6FF08505FFE600BF50BC00087E
:1057400030C1000814C1000893DA0008CDDA00085F
:10575000F7C9000849DC000869CB000865F00008BB
:1057600008C2000885F00008A4F00008C4F0000892
:10577000E8F000081AF1000814CA000814C1000873
:1057800004C1000871F200082DF100083FD30008A1
:105790000000014000440140001000408FF200086A
:1057A000154B9C423FF46CAFB4F1804F3FF46AAFAD
:1057B000124B9C423FF466AF114B9C423FF462AFE8
:1057C00003F580639C429ED15CE70B4B9C423FF407
:1057D00071AFF368002B3FF477AFD8F80020094988
:1057E000CDE90332084B02930023CDE900330122B7
:1057F000184605F0F7FC9DE7000401400004004056
:105800000008004008C20008B5F200082DE9FF4179
:105810000446084600F1FF3C19466368BDF828704D
:105820001D68BCF1030F0FD98B4B02930023CDE908
:105830000033039018468949012205F0D3FC6FF02C
:10584000150004B0BDE8F081B5F1804F13D0844C51
:10585000A54210D0B2F5803F0DD9824B02930023B0
:105860000392CDE900337D490122184605F0BAFCC8
:105870006FF08500E5E77C4C042854F82C6016BFD7
:105880007A4C002454F82C4017F4807F07D03CB9A0
:10589000774B0390CDE9014300942346CAE7344691
:1058A0002AB92B6A23EA04032B620020C9E79B680C
:1058B000002B7ED102F1FF3807F00100402C4FEAA7
:1058C000400000F08E8000F28380042C00F08B807A
:1058D000102C00F08A80012C14BF06230023654F92
:1058E0002A6A17F803E0022707FA0EF300FA0EF00F
:1058F00022EA030303432B625F4B284653F82C3004
:105900009847C5F82C802B6A34EA0303CDD0402E8B
:1059100078D06ED8042E77D0102E77D0012E14BFF9
:1059200006230023554F564817F803C010F803E02C
:1059300005F11801732351F80C2003FA0EF322EA43
:105940000303602202FA0EF21343402C41F80C309C
:1059500069D05FD8042C68D0102C68D0012C14BFFB
:1059600006230023DFF81CC16A681CF803C04FF44B
:10597000807303FA0CF322EA03036B602B6A402E58
:1059800044EA03042C625FD055D8042E5ED0102E5A
:105990005ED0012E14BF06230023FA5CC05C8C5835
:1059A0000823834023438B506B6943F001036B61F1
:1059B0007BE7102B01D101397CE723F04000202840
:1059C00002D0402B7FF454AF49084FEA520873E7E6
:1059D000B4F5807F0BD0B4F5806F14BF0623052388
:1059E0007DE703237BE7012379E7022377E704239D
:1059F00075E7B6F5807F0BD0B6F5806F14BF062330
:105A000005238FE703238DE701238BE73B4689E7D7
:105A1000042387E7B4F5807F0BD0B4F5806F14BF03
:105A2000062305239EE703239CE701239AE702232D
:105A300098E7042396E7B6F5807F0BD0B6F5806F24
:105A400014BF06230523A8E70323A6E70123A4E741
:105A50000223A2E70423A0E7E1F2000808C200083D
:105A6000000C0040F6F20008B8C60008ACC60008FA
:105A70003AF30008AA0401089CC60008B80401080B
:105A8000B1040108A304010810B570B91448154AFF
:105A9000154940F28A2304F072FD144804F06FFDAA
:105AA000104840F28A2104F061FD8368104CA34243
:105AB00007D2104CA34204D39B6973B96FF057000F
:105AC00010BD084A0C49064840F28A2304F057FDED
:105AD0000A490B4804F053FDE2E7BDE810401847BF
